:1000000002EF02F06DEF06F004EF08F0A7EC02F04B
:10001000FF0000F000F012000CEF08F018EF00F005
:10003000F26AFC6A73EC02F00400AFEC05F05EECCF
:1000400004F0FAD7080E2A6E27500DE1080E265C40
:100050000AE226C02AF03B5002E1010E03D03B0425
:1000600002E1020E3B6E2AC009F42A50265E000E01
:10007000275A240E1A6E040E1B6E3DA21ED00DD000
:100080001DC0F6FF1DD857EC07F0070EF76403D02C
:100090000800F55001D018D81DD82A50F1E11200FF
:1000A0001DC0F6FF0DD857EC07F0070EF76403D01C
:1000B0000800F55001D008D80DD82A50F1E11200FF
:1000C0001EC0F7FFF86A1200F6CFE1FFF7CFE2FF9C
:1000D000E7501200DF6E1A4A1B2A1D4A1E2A2A0602
:1000E0001200800E011830E01200010E386EA40ECE
:1000F000BCEC06F0120E09D003502DE1010E386E53
:10010000380EBCEC06F0276A290E266E24D0010EAC
:10011000386E0350010F426E42C0F6FF080EF76EB4
:100120000900F5CF1DF01E6E1DC0F6FF1EC0F7FFC3
:10013000F86A070EF76403D00800F55002D064ECAB
:1001400000F0266E276A07D00450010ACEE0030AA9
:10015000D3E0010ADCE03D821200246B256B22D043
:10016000010E386E3DB0248324D0010E386E21D0AC
:100170005CEC07F0426A040E436E4226000E4322F6
:10018000F3504226F450432262EC07F042241A6EE8
:10019000F45043201B6E57EC07F0DFA40AD0010E89
:1001A000246F07D001501F0BDBE0010ADEE0030AD9
:1001B000DFE03804D8A41200240E1D6E040E1E6E5B
:1001C0003D92020E266E020C446E3A6A04010CBF88
:1001D000120042500D5D02E20DC442F03A6A0BD0AB
:1001E0002C0E3A24D96EDA6A040EDA2244503A24EC
:1001F0000AEC06F03A2A42503A5CF2E3400E04015F
:100200000D6F0C170CBD03D0436A432A01D0436A1B
:10021000433A4346434604010C514318BF0B43186D
:100220000C6F0C870C8F1200446E400E426401D09C
:10023000426E456A0DD044504524D96EDA6A6C0E80
:100240004524E16EE26A040EE222DFCFE7FF452A91
:100250004250455CF0E342C011F4400E0401101717
:1002600010BD03D0436A432A01D0436A433A434650
:100270004346040110514318BF0B4318106F1087F9
:10028000108F1200030E3C6E666A656A7B0E646E08
:10029000636A17D8160E6A6E608C03D06596FCEC04
:1002A00007F065B6FBD7609C6098040E0D6E000EDB
:1002B00069EC01F0010E366E3D6A406A000E9FEF58
:1002C00002F06B6A6C6A6D6A6E6A6F6A706A716A54
:1002D0001200426E080E0E6E1C0E0F6E040E106E93
:1002E000425006E1140E0F6E040E106E206A02D00A
:1002F000040E206E216E0BD80DC0DEFF0EC0DEFF97
:100300000FC0DEFF10C0DEFF02D8DF8E120020C05B
:10031000D9FF21C0DAFF120084A618EC00F0060E07
:1003200016D80D0EF5180FE10900600EF5180BE157
:10033000F66A100EF76E0900F52803E10900F528AA
:1003400002E000EF08F018EC00F000EF00F0F66EAD
:10035000100EF76E0900100C040E3C1807E103C0E4
:1003600063FF6350050ED8B4030E3C6E3904D8A465
:10037000120022EC00F0020E3B1802E108D8040C37
:100380000401480E08BD080E086F088F1200040E05
:100390000401086F088F040C300EF86E6251F76E7E
:1003A00061C0F7FF2E6A0FD06551A0082E24D96EC8
:1003B000DA6ADF50F56E0C00C40EA66EB50E44EC82
:1003C00002F009002E2A000165512E5CEDE31200B7
:1003D000010E386E61EC01F02C6A2C50410FD96E81
:1003E000DA6ADF6A2C2A2C50F8E003C040F0405053
:1003F0009FEC02F0035003E1050E3C6E050C060E67
:100400003C6E060C01EE00F0400EEE6AE806FDE1DF
:1004100000EE60F0820EEE6AE806FDE100EE01F00B
:10042000410EEE6AE806FDE1000EF86E00018CEF69
:1004300001F00401086B3B6A00AF02D0006B366A22
:1004400004AF03D0046B010E366E396A386A266A2F
:10045000276A6098BAEC07F002EC00F06BEF07F047
:100460003A6A1E0E6B6E400E04010D6F2C0E0E6F5D
:10047000040E0F6F080E0C6F0C8F6C0E126F040EB3
:10048000136F400E106F400C426EF29EB50E421874
:1004900004E0030ED36E0300FED7550EA76EAA0E1E
:1004A000A76EA682A6B2FED7A6941200350402E17A
:1004B000A7EC02F0606A150E626E646A608642EC18
:1004C00001F0010E3C6E356A120064CF2DF0040E6F
:1004D000646E65986082A494A384C1EC02F0A39436
:1004E0002D5064121200800E9B6E700ED36E100E93
:1004F000D26ED2AEFED7900EB56E81EC02F0B6EFA2
:1005000002F0326A04D8336A010E346E010C0968B5
:100510000A680B680C68120005D0FCEC07F0420674
:10052000D8A0430642504310F8E11200BCEC02F0A0
:100530006092649401D0659465A41200FCD7426E69
:100540004204D8A4120030EC02F081EF02F0609275
:10055000606A436842688CEC02F03C6A1200350421
:1005600001E1120060A656EC02F0120060B6A7ECA2
:1005700002F0356AAFEF02F0030E436E426A8CEF71
:0C05800002F00300A4A4D0B61200FBD7C8
:1008000000B6046134034D006900630072006F009C
:1008100063006800690070002000540065006300F8
:1008200068006E006F006C006F00670079002000A8
:1008300049006E0063002E000902290001010080BA
:100840003209040000020300000009211101000127
:10085000221D000705810340000107050103400038
:10086000012603480049004400200055005300427F
:1008700000200042006F006F0074006C006F006188
:10088000006400650072000600FF0901A101190162
:100890002940150026FF007508954081001901299F
:1008A000409100C01201000200000008D8043C0082
:0B08B000010101020001040309040023
:1008BC00060E3C18D8B460B21200325001E02BD1B5
:1008CC0004010CBF1200400E426E600EE4EC00F00E
:1008DC00010E326E286A2850A10FD96EDA6ADF6ACF
:1008EC00282A3F0E2864F7D73F0C040110BF1200D2
:1008FC00020E0001A16F3A0EA26F010EA36FA46F3E
:10090C00A56B100EA66FA76BA86BA96B300EAA6F08
:10091C00AB6BAC6B030EAD6FAE6BAF6B300EB06FE1
:10092C00B16B0E0EB26FB36BB46BB56B040EB66FCE
:10093C00B76BB86B200EB96FBA6B080EBB6FBC6B84
:10094C00BD6BBE6BBF69A50EDA6FFFD814EC01F05E
:10095C00326A1200010E346E6151FAE1346AF8D732
:10096C00256A400E246EFCEC07F0F86A24C047F0B0
:10097C0025C048F0D89048324732D8904832473298
:10098C004750F76E2440E842C00BF66E940EA66EEC
:10099C00B50E44EC02F0AFEC05F0244A252A2504F0
:1009AC00E2E3200EF86EF76A16EC07F044EC02F066
:1009BC00CFD7300E631905E13450CAE1CCEC01F00D
:1009CC00C7D709280EE10A280CE10B280AE10C28EC
:1009DC0008E161C009F062C00AF063C00BF064C0AA
:1009EC000CF009506119B4E10A506219B1E10B50D5
:1009FC006319AEE10C506419ABE1286A15D065514E
:100A0C00A0082824D96EDA6A000E332463EC06F0B1
:100A1C00332A092A000E0A220B220C22100E33183C
:100A2C0002E10FEC06F0282A00016551285C90E2E7
:100A3C00E6D70FEC06F087EC02F08AD7070EA16F11
:100A4C0061C0A2F062C0A3F063C0A4F064C0A5F0C2
:100A5C0065C0A6F061C011F062C012F063C013F063
:100A6C00286A16D0F00E631912E011C0F6FF12C0FE
:100A7C00F7FF13C0F8FF6551E1082824D96EDA6A34
:100A8C000800F5CFDFFF112A000E12221322282AAC
:100A9C006551285CE7E3040110BF120056D814EC32
:100AAC0001F056D7C7EC06F053D70C0EA16F010E10
:100ABC00A36F020EA26F160EA7EC01F0F5CFA4F0F7
:100ACC000A00F5CFA5F0060EA66F100EA76FA86B47
:100ADC00A96B600EAB6F0D0EAA6F400EAC6F000EC3
:100AEC00AD6BAE6BAF6BB069B169B269B369B46B26
:100AFC00B569B669B76BB869B969BA69BB69BC69DC
:100B0C00BD69040110BF120020D814EC01F020D7ED
:100B1C0006EC00F01DD700016051020A01E1E5D698
:100B2C00010A01E117D7070A01E11AD7010A01E10D
:100B3C0040D7030A01E17DD7010A80E00F0AE8E003
:100B4C00010AB0E0050AB1E003D7400E426EA10ED7
:100B5C001200AFEC02F03C5001E1120065B496ECCF
:100B6C0002F060B2120065B042EC01F065B865ECC1
:100B7C0002F0030E3C6001D0030C376A65A612002C
:100B8C00615061CF45F07C0E45162AE161B203D06D
:100B9C00226A040E02D0040E226E236E659622C0C9
:100BAC00D9FF23C0DAFFDF30E8320F0B0D0A20E14A
:100BBC002B6A23D8DECF45F0DDCF46F045C0D9FFF8
:100BCC0046C0DAFF2B50010F1FD817D8DE2A000EB3
:100BDC00DD222B2A070E2B64ECD719EC02F008D07F
:100BEC00040E611804E16596ACEC01F001D0659639
:100BFC00372A030E3764C2D7030C20EE02F02250C2
:100C0C00D9262350DA221200E16EE26ADFCFE7FF29
:100C1C0012003350095C436E000E0A58446E000EED
:100C2C000B58456E000E0C58466E4350176E44C060
:100C3C0018F045C019F0F86A18C0F7FF17C0F6FF96
:100C4C002F6AF6500F0B306EF00EF616316A3050DC
:100C5C0011E133500CE0000E2F24D96EDA6A010E2C
:100C6C00DA22DF50F56E0D002F2A330606D0F56818
:100C7C000D0003D0F5680D003006312A0F0E3164DB
:100C8C00E6D70A0021D844EC02F0316A12D0000EEB
:100C9C00436E010E446E2F504326000E44223150F9
:100CAC004324D96E000E4420DA6E000E312405D890
:100CBC00312A3350315CEBE31200E16EE26A010E33
:100CCC00E222DFCFE7FF1200A40EA66EB50C015096
:100CDC001F0BE80601E01200055001E01200060EA1
:100CEC00021814E01AD0020E386E4A0E3FD8276A4A
:100CFC00090E0AD0020E386E400402E1870E36D877
:100D0C0040040AE1276A1D0E266E06D00450210A03
:100D1C00EAE0030AEFE0010A3D820138E832030BF6
:100D2C00E80614E01200020E386E3F0E1D6E24D041
:100D3C00020E386E04C03FF0020C020E386E3E0EEE
:100D4C00F5D7020E386E03C03EF0020C0250010AB9
:100D5C00D8B41200030AE7E0010AEFE00A0AD8B49B
:100D6C001200030AE5E0010AECE012001D6E1D50B2
:100D7C00D8A4080E1E6E12001E6A3D92010E266E3D
:100D8C00010C146A100E156E166A296A14C0F6FF4F
:100D9C0015C0F7FF16C0F8FF3CD80800F5CFDFFFF1
:100DAC00142A000E15221622292A3F0E2964EED78A
:100DBC000D0E0101066F600E076FF86A100EF76ECC
:100DCC002FD844EC02F03F0E146E100E156E166AFE
:100DDC003F0E296E16C0F8FF15C0F7FF14C0F6FFC2
:100DEC0018D8DF50F56E0C0029C043F00F0E4316D7
:100DFC0006E1FCEC07F06AEC06F044EC02F0140699
:100E0C00000E155A165A0A00295001E11200290643
:100E1C00E1D7000E2924D96EDA6A010EDA2212000B
:100E2C00F66A940EA66EB50C03040BE101501F0B71
:100E3C0008E1010E386E030E021802E13D8001D06C
:100E4C003D900350D8A4120001501F0B020AD8A4E5
:100E5C00120005500F0BD8B4120028D8426A040EA9
:100E6C00436E4226000E4322F3504226F450432296
:100E7C0023D842241A6EF45043201B6E030E021822
:100E8C0005E10FD8040EDF6E0CD81CD005AE04D0D3
:100E9C0008D8400EDF6E400C04D8080EDF6E01D867
:100EAC0011D01AC0D9FF1BC0DAFF1200010E386E28
:100EBC0005500F0B080D1200010E05AE000E040DAF
:100ECC00F3501200000EDB8E000C385010E1C7EC12
:100EDC0001F00D6E360405E1010E69EC01F0366A85
:100EEC001200000E69EC01F0010E366E010C01AE21
:100EFC001BD0010E396E2650075C2750085804E2AF
:100F0C0007C026F008C027F022EC00F0480E0D6E4A
:100F1C00010E69EC01F0000E69EC01F0240E0401E5
:100F2C000A6F040E0B6F1CD0020E396E040E0D6E80
:100F3C000750081002E1480E0D6E360405E1010E53
:100F4C0069EC01F0366A05D0000E69EC01F0010E77
:100F5C00366E07500810D8A412000401096B00D09B
:100F6C00480E086F088F480C0138E832030B18E064
:100F7C001200010E386E040E3C6E040C010E386E1D
:100F8C00400E1D6EC2EF06F02CD8446E44C01DF00E
:100F9C00C2EF06F026D8D96EDA6A03C0DFFF120062
:100FAC00025002E1ADEF00F0010A02E11AEF07F086
:100FBC00020A02E11AEF07F0060ADBE0030A02E17B
:100FCC0071EF00F0010AD8B412000F0AD7E0010A41
:100FDC0002E1E8EF01F0030AD7E0010ADBE0070ABF
:100FEC001200010E386E0550410F12000400120061
:040FFC0012001200CD
:021006000D607B
:020000040020DA
:08000000FFFFFFFFFFFFFFFF00
:020000040030CA
:0E00000021284637FF4081FF02C003800340E5
:00000001FF
