:1000000054EF02F047EF06F004EF08F0FAEC02F0CC
:10001000FF0000F000F012000CEF08F018EF00F005
:10003000F26AFC6AC7EC02F00400E8EC05F01DEC83
:1000400003F01CEC03F05EEC04F0F6D7080E206E13
:100050003E500DE1080E3D5C0AE23DC020F03250FA
:1000600002E1010E03D0320402E1020E326E20C022
:1000700009F420503D5E000E3E5A240E126E040E0E
:10008000136E34B20AD016D019D8F76403D0080022
:10009000F55002D0F4EC00F01CD82050D8B4120077
:1000A000F3D70CD8F76403D00800F55002D0F4EC75
:1000B00000F00FD82050D8B41200F3D715C0F6FFC7
:1000C00016C0F7FFF86A12C0D9FF13C0DAFF070E97
:1000D0001200DF6E124A132A154A162A2006120051
:1000E0003538E832030BD8A412001FD0010E2F6E52
:1000F000040E336E040C010E2F6E410E156E166A3F
:100100003492010E3D6E010C010E2F6E3950420FDC
:10011000456E45C015F0F3D7010E2F6E3950420FD2
:10012000D96EDA6A37C0DFFF1200365002E1FAEF0B
:1001300000F0010A02E102EF07F0020A02E102EF19
:1001400007F0060AD3E0030A02E1B6EF00F0010A65
:10015000D8B412000F0ACFE0010A02E180EF01F0EB
:10016000030AD2E0010AD8E0070A1200800E35180F
:10017000D8A4120030D0010E2F6EA40E156E1550AB
:10018000D8A4080E166E120E08D037502BE1010EBF
:100190002F6E380E9FEC06F0290E3D6E23D0010E17
:1001A0002F6E3750010F436E43C0F6FF080EF76EF7
:1001B0000900F5CF15F0166E15C0F6FF16C0F7FF53
:1001C000F86A070EF76403D00800F55001D00CD888
:1001D0003D6E3E6A07D03850010ACDE0030AD5E0F3
:1001E000010ADDE034821200F6CFE1FFF7CFE2FF33
:1001F000E7501200246B256B2AD0010E2F6E34B00D
:1002000024832CD0010E2F6E29D0010E2F6E395071
:100210000F0B080D436A040E446E4326000E442261
:10022000F3504326F4504422010E39AE000E040D63
:10023000F3504324126EF4504420136E12C0D9FFC1
:1002400013C0DAFFDFA40AD0010E246F07D03550A7
:100250001F0BD3E0010AD6E0030AD7E02F04D8A48D
:100260001200240E156E040E166E3492020E3D6EB0
:10027000020C436E080E066E1C0E076E040E086E0E
:10028000435006E1140E076E040E086E000E01D0F6
:10029000040E186E040E196E18C0D9FF19C0DAFFCB
:1002A00005C0DEFF06C0DEFF07C0DEFF08C0DEFFC0
:1002B00018C0D9FF19C0DAFFDF8E040C446E316A12
:1002C0000CBF120043500D5DD8A00DC443F0316A3D
:1002D0000DD02C0E3124D96EDA6A040EDA22445085
:1002E0003124E16EE26ADFCFE7FF312A4350315C0F
:1002F000F0E3400E0D6F0C170C7D0C870C8F400C3B
:10030000010E2F6E16D8226A2250420FD96EDA6A79
:10031000DF6A222A2250F8E037C041F04150F2EC67
:1003200002F0375003E1050E336E050C060E336EF6
:10033000060C6B6A6C6A6D6A6E6A6F6A706A716AC3
:10034000120084A618EC00F0060E16D80D0EF51853
:100350000FE10900600EF5180BE1F66A100EF76E5A
:100360000900F52803E10900F528D8A400EF08F0FA
:1003700018EC00F000EF00F0F66E100EF76E0900BA
:10038000100C446E400E436401D0436E456A0DD09C
:1003900044504524D96EDA6A6C0E4524E16EE26A57
:1003A000040EE222DFCFE7FF452A4350455CF0E32D
:1003B00043C011F4400E04011017107D1087108FF8
:1003C000400C030E336E666A656A7B0E646E636A68
:1003D00099EC01F0160E6A6E608C03D0659618ECED
:1003E00003F065B6FBD7609C6098040E056E000EA6
:1003F00039EC01F0010E2D6E346A416A000EF2EF05
:1004000002F0040E331807E137C063FF6350050E96
:10041000D8B4030E336E3004D8A4120026EC00F0DA
:10042000020E321805E1040E0401086F088F040C57
:100430000401480E08BD080E086F088F1200300E28
:10044000F86E6251F76E61C0F7FF246A0FD06551F4
:10045000A0082424D96EDA6ADF50F56E0C00C40EB1
:10046000A66EB50E82EC02F00900242A0001655147
:10047000245CD8B01200EBD7256A10D06151252436
:10048000A96E6551A0082524D96EDA6ADF50A86EDE
:10049000040EA66EB50E82EC02F0252A000165510D
:1004A000255CD8B01200EAD701EE00F0400EEE6AEB
:1004B000E806FDE100EE60F0820EEE6AE806FDE17E
:1004C00000EE01F0420EEE6AE806FDE1000EF86E65
:1004D0000001A1EF01F00401086B326A00AF02D005
:1004E000006B2D6A04AF03D0046B010E2D6E306AD1
:1004F0002F6A3D6A3E6A609870EC00F002EC00F0F2
:100500005AEF07F0436EF29E1CEC03F0B50E431851
:1005100004E0030ED36E0300FED7550EA76EAA0E9D
:10052000A76EA682A6B2FED7A6941200316A1E0E4E
:100530006B6E400E04010D6F2C0E0E6F040E0F6FCC
:10054000080E0C6F0C8F6C0E126F040E136F400EA2
:10055000106F400C2C04D8B4FAEC02F0606A150E4F
:10056000626E646A6086E1EC01F0010E336E2C6A03
:10057000120064CF23F0040E646E65986082A49428
:10058000A38413EC03F0A394235064121200800E92
:100590009B6E700ED36E100ED26ED2AEFED7900E42
:1005A000B56EE9EC02F002EF03F005D018EC03F0B1
:1005B0004306D8A0440643504410D8B41200F6D7DE
:1005C0000EEC03F06092649401D0659465A412006F
:1005D000FCD7296A01680268036804682A6A010E68
:1005E0002B6E010C436E4304D8A4120096EC02F06B
:1005F000E9EF02F06092606A44684368D5EC02F06B
:10060000336A120060B6FAEC02F02C6A08EF03F0CD
:100610002C04D8A460B61200AAEF02F0030E446EB8
:10062000436ADBEF02F00300A4A4D0B61200FBD7AC
:0C06300004001200120012001200120060
:1008000000B6046134034D006900630072006F009C
:1008100063006800690070002000540065006300F8
:1008200068006E006F006C006F00670079002000A8
:1008300049006E0063002E000902290001010080BA
:100840003209040000020300000009211101000127
:10085000221D000705810340000107050103400038
:10086000012603480049004400200055005300427F
:1008700000200042006F006F0074006C006F006188
:10088000006400650072000600FF0901A101190162
:100890002940150026FF007508954081001901299F
:1008A000409100C01201000200000008D8043C0082
:1008B000010101020001040309040000060E3318BF
:1008C000D8B460B21200295001E067D104010CBF16
:1008D0001200400E436E600E5EEC01F0010E296EB8
:1008E0001E6A1E50A10FD96EDA6ADF6A1E2A3F0EF9
:1008F0001E64F7D73F0C040110BF1200020E000166
:10090000A16F3A0EA26F010EA36FA46FA56B100E1C
:10091000A66FA76BA86BA96B300EAA6FAB6BAC6B05
:10092000030EAD6FAE6BAF6B300EB06FB16B0E0ED2
:10093000B26FB36BB46BB56B040EB66FB76BB86BBD
:10094000200EB96FBA6B080EBB6FBC6BBD6BBE6B74
:10095000BF69020EBF6FC06BC16BF00EC26FC36B7D
:10096000C46B010EC56FC66BC76BC869A50EDA6F85
:10097000400E436EA10EC1EC01F0296A1200010E77
:100980002B6E6151FAE12B6AF8D71D6A400E1C6E7E
:1009900018EC03F0F86A1CC048F01DC049F0D8906C
:1009A00049324832D890493248324850F76E1C409C
:1009B000E842C00BF66E940EA66EB50E82EC02F005
:1009C000E8EC05F01C4A1D2A1D04E2E31E6A1EC065
:1009D000A9FFA868040EA66EE8EC05F0B50E82EC3F
:1009E00002F01E3EF4D7200EF86EF76AF66A940EF7
:1009F000A66EB50E82EC02F0C0D7300E631905E189
:100A00002B50BBE11FEC02F0B8D7F00E631903E1E5
:100A10003CEC02F0B2D701280EE102280CE10328D9
:100A20000AE1042808E161C001F062C002F063C07D
:100A300003F064C004F0015061199FE10250621993
:100A40009CE10350631999E10450641996E11E6A10
:100A500019D06551A0081E24D96EDA6A000E2A2426
:100A6000E16EE26A010EE222DFCFE7FF2A2A012AC5
:100A7000000E022203220422100E2A18D8B4A6EC7B
:100A800006F01E2A000165511E5C01E376D7E1D70E
:100A9000A6EC06F001680268036804686ED7070ECA
:100AA000A16F61C0A2F062C0A3F063C0A4F064C0F3
:100AB000A5F065C0A6F061C009F062C00AF063C08D
:100AC0000BF01E6A23D0F00E63190DE161511E2454
:100AD000A96EA66AA6806551E1081E24D96EDA6A5D
:100AE000A8CFDFFF12D009C0F6FF0AC0F7FF0BC086
:100AF000F8FF6551E1081E24D96EDA6A0800F5CFC7
:100B0000DFFF092A000E0A220B221E2A65511E5CF5
:100B1000DAE3040110BF1200400E436EA10EC1ECD7
:100B200001F02BD7ADEC07F028D70C0EA16F010E0A
:100B3000A36F020EA26F160EBCEC01F0F5CFA4F06D
:100B40000A00F5CFA5F0060EA66F100EA76FA86BD2
:100B5000A96B600EAB6F0D0EAA6F400EAC6F000E4E
:100B6000AD6BAE6BAF6BB069B169B269B369B46BB1
:100B7000B569B669B76BB869B969BA69BB69BC6967
:100B8000BD69040110BF1200400E436EA10EC1ECFE
:100B900001F0F3D606EC00F0F0D600016051020A35
:100BA00001E1A9D6010A01E1EAD6070A01E1EDD681
:100BB000010A01E122D7030A01E16AD7010A01E132
:100BC0006ED70F0AE7E0010AADE0050AAEE0D5D620
:100BD00008EC03F03350D8B4120065B4E0EC02F036
:100BE00060B2120065B0E1EC01F065B8B9EC02F05A
:100BF000030E336001D0030C2E6A65A6120061500B
:100C000061CF46F07C0E461635E1000E61B2040E4F
:100C10001A6E040E1B6E65961AC0D9FF1BC0DAFF50
:100C2000DF30E8320F0B0D0A2DE1216A20EE02F0D1
:100C30001A50D9261B50DA22DECF46F0DDCF47F01E
:100C400046C0D9FF47C0DAFF2150350FE16EE26A96
:100C5000DFCFE7FF20EE02F01A50D9261B50DA2230
:100C6000DE2A000EDD22212A070E2164DFD76BEC7D
:100C700002F008D0040E611804E1659601EC02F060
:100C800001D065962E2A030E2E64B7D7030C35507B
:100C90001F0BE806D8A412003950D8A41200060E83
:100CA000361817E01DD0020E2F6E4A0E48D8090ED6
:100CB0000ED0020E2F6E410406E1870E156E155000
:100CC000D8A4080E166E41040AE13E6A1D0E3D6E60
:100CD00006D03850210AE7E0030AEBE0010A34822B
:100CE0003538E832030BE806D8A4120019D01200F8
:100CF0001200020E2F6E400E156E166A3492010E0F
:100D00003D6E010C020E2F6E38C040F0020C020E38
:100D10002F6E3F0EF1D7020E2F6E37C03FF0020C40
:100D20003650010AE4E0030AE4E0010AF0E00A0AAE
:100D3000DFE0030AE7E0010AD8A41200ECD7156E41
:100D40001550D8A4080E166E3E6A12002A50015C97
:100D5000446E000E0258456E000E0358466E000E9B
:100D60000458476E44500F6E45C010F046C011F055
:100D7000F86A10C0F7FF0FC0F6FF266AF6500F0B97
:100D8000276EF00EF616286A275011E12A500CE063
:100D9000000E2624D96EDA6A010EDA22DF50F56ED3
:100DA0000D00262A2A0606D0F5680D0003D0F56846
:100DB0000D002706282A0F0E2864E6D70A00A40E85
:100DC000A66EB50E82EC02F0286A17D0000E446EB3
:100DD000010E456E26504426000E4522285044241C
:100DE000D96E000E4520DA6E000E2824E16EE26A0C
:100DF000010EE222DFCFE7FF282A2A50285CD8B074
:100E00001200E4D737040BE135501F0B08E1010E47
:100E10002F6E030E361802E1348001D03490375023
:100E2000D8A4120035501F0B020AD8A41200395062
:100E30000F0BD8B41200010E2F6E39500F0B080D96
:100E4000436A040E446E4326000E4422F3504326A8
:100E5000F4504422010E39AE000E040DF350432429
:100E6000126EF4504420136E030E36180DE112C0BA
:100E7000D9FF13C0DAFF040EDF6E12C0D9FF13C012
:100E8000DAFF000EDB8E000C39AE07D012C0D9FF9E
:100E900013C0DAFF400EDF6E400C12C0D9FF13C042
:100EA000DAFF080EDF6E12C0D9FF13C0DAFF000EA2
:100EB000DB8E000C2F5012E1040E0401086F088F26
:100EC000056E2D0405E1010E39EC01F02D6A1200CA
:100ED000000E39EC01F0010E2D6E010C35AE1ED066
:100EE000010E306E3D503B5C3E503C5804E23BC02E
:100EF0003DF03CC03EF026EC00F0480E056E010EC1
:100F000039EC01F0000E39EC01F0240E04010A6FF7
:100F1000040E0B6F480E086F088F480C020E306EDF
:100F2000040E056E3B503C1002E1480E056E2D0488
:100F300005E1010E39EC01F02D6A05D0000E39EC07
:100F400001F0010E2D6E3B503C10D8A4120004019C
:100F5000096B480E086F088F480C0C6A100E0D6E56
:100F60000E6A1F6A0CC0F6FF0DC0F7FF0EC0F8FF37
:100F700040D80800F5CFDFFF0C2A000E0D220E220C
:100F80001F2A3F0E1F64EED70D0E0101066F600E83
:100F9000076FF86A100EF76EF66A940EA66EB50E1D
:100FA00082EC02F03F0E0C6E100E0D6E0E6A3F0EBC
:100FB0001F6E0EC0F8FF0DC0F7FF0CC0F6FF19D86A
:100FC000DF50F56E0C001FC044F00F0E441607E111
:100FD00018EC03F0A40EA66EB50E82EC02F00C061F
:100FE000000E0D5A0E5A0A001F50D8B412001F06E8
:100FF000E0D7000E1F24D96EDA6A010EDA22120041
:021006000D607B
:020000040030CA
:0E00000021284637FF4081FF03C003E0034084
:00000001FF
